{
  "contractName": "LicenseToken",
  "abi": [
    {
      "inputs": [],
      "stateMutability": "nonpayable",
      "type": "constructor"
    },
    {
      "anonymous": false,
      "inputs": [
        {
          "indexed": true,
          "internalType": "address",
          "name": "owner",
          "type": "address"
        },
        {
          "indexed": true,
          "internalType": "address",
          "name": "approved",
          "type": "address"
        },
        {
          "indexed": true,
          "internalType": "uint256",
          "name": "tokenId",
          "type": "uint256"
        }
      ],
      "name": "Approval",
      "type": "event"
    },
    {
      "anonymous": false,
      "inputs": [
        {
          "indexed": true,
          "internalType": "address",
          "name": "owner",
          "type": "address"
        },
        {
          "indexed": true,
          "internalType": "address",
          "name": "operator",
          "type": "address"
        },
        {
          "indexed": false,
          "internalType": "bool",
          "name": "approved",
          "type": "bool"
        }
      ],
      "name": "ApprovalForAll",
      "type": "event"
    },
    {
      "anonymous": false,
      "inputs": [
        {
          "indexed": false,
          "internalType": "string",
          "name": "tokenuri",
          "type": "string"
        }
      ],
      "name": "TokenURI",
      "type": "event"
    },
    {
      "anonymous": false,
      "inputs": [
        {
          "indexed": true,
          "internalType": "address",
          "name": "from",
          "type": "address"
        },
        {
          "indexed": true,
          "internalType": "address",
          "name": "to",
          "type": "address"
        },
        {
          "indexed": true,
          "internalType": "uint256",
          "name": "tokenId",
          "type": "uint256"
        }
      ],
      "name": "Transfer",
      "type": "event"
    },
    {
      "inputs": [
        {
          "internalType": "address",
          "name": "to",
          "type": "address"
        },
        {
          "internalType": "uint256",
          "name": "tokenId",
          "type": "uint256"
        }
      ],
      "name": "approve",
      "outputs": [],
      "stateMutability": "nonpayable",
      "type": "function"
    },
    {
      "inputs": [
        {
          "internalType": "address",
          "name": "owner",
          "type": "address"
        }
      ],
      "name": "balanceOf",
      "outputs": [
        {
          "internalType": "uint256",
          "name": "",
          "type": "uint256"
        }
      ],
      "stateMutability": "view",
      "type": "function",
      "constant": true
    },
    {
      "inputs": [
        {
          "internalType": "uint256",
          "name": "tokenId",
          "type": "uint256"
        }
      ],
      "name": "getApproved",
      "outputs": [
        {
          "internalType": "address",
          "name": "",
          "type": "address"
        }
      ],
      "stateMutability": "view",
      "type": "function",
      "constant": true
    },
    {
      "inputs": [
        {
          "internalType": "address",
          "name": "owner",
          "type": "address"
        },
        {
          "internalType": "address",
          "name": "operator",
          "type": "address"
        }
      ],
      "name": "isApprovedForAll",
      "outputs": [
        {
          "internalType": "bool",
          "name": "",
          "type": "bool"
        }
      ],
      "stateMutability": "view",
      "type": "function",
      "constant": true
    },
    {
      "inputs": [],
      "name": "name",
      "outputs": [
        {
          "internalType": "string",
          "name": "",
          "type": "string"
        }
      ],
      "stateMutability": "view",
      "type": "function",
      "constant": true
    },
    {
      "inputs": [
        {
          "internalType": "uint256",
          "name": "tokenId",
          "type": "uint256"
        }
      ],
      "name": "ownerOf",
      "outputs": [
        {
          "internalType": "address",
          "name": "",
          "type": "address"
        }
      ],
      "stateMutability": "view",
      "type": "function",
      "constant": true
    },
    {
      "inputs": [
        {
          "internalType": "address",
          "name": "from",
          "type": "address"
        },
        {
          "internalType": "address",
          "name": "to",
          "type": "address"
        },
        {
          "internalType": "uint256",
          "name": "tokenId",
          "type": "uint256"
        }
      ],
      "name": "safeTransferFrom",
      "outputs": [],
      "stateMutability": "nonpayable",
      "type": "function"
    },
    {
      "inputs": [
        {
          "internalType": "address",
          "name": "from",
          "type": "address"
        },
        {
          "internalType": "address",
          "name": "to",
          "type": "address"
        },
        {
          "internalType": "uint256",
          "name": "tokenId",
          "type": "uint256"
        },
        {
          "internalType": "bytes",
          "name": "_data",
          "type": "bytes"
        }
      ],
      "name": "safeTransferFrom",
      "outputs": [],
      "stateMutability": "nonpayable",
      "type": "function"
    },
    {
      "inputs": [
        {
          "internalType": "address",
          "name": "operator",
          "type": "address"
        },
        {
          "internalType": "bool",
          "name": "approved",
          "type": "bool"
        }
      ],
      "name": "setApprovalForAll",
      "outputs": [],
      "stateMutability": "nonpayable",
      "type": "function"
    },
    {
      "inputs": [
        {
          "internalType": "bytes4",
          "name": "interfaceId",
          "type": "bytes4"
        }
      ],
      "name": "supportsInterface",
      "outputs": [
        {
          "internalType": "bool",
          "name": "",
          "type": "bool"
        }
      ],
      "stateMutability": "view",
      "type": "function",
      "constant": true
    },
    {
      "inputs": [],
      "name": "symbol",
      "outputs": [
        {
          "internalType": "string",
          "name": "",
          "type": "string"
        }
      ],
      "stateMutability": "view",
      "type": "function",
      "constant": true
    },
    {
      "inputs": [
        {
          "internalType": "uint256",
          "name": "tokenId",
          "type": "uint256"
        }
      ],
      "name": "tokenURI",
      "outputs": [
        {
          "internalType": "string",
          "name": "",
          "type": "string"
        }
      ],
      "stateMutability": "view",
      "type": "function",
      "constant": true
    },
    {
      "inputs": [
        {
          "internalType": "address",
          "name": "from",
          "type": "address"
        },
        {
          "internalType": "address",
          "name": "to",
          "type": "address"
        },
        {
          "internalType": "uint256",
          "name": "tokenId",
          "type": "uint256"
        }
      ],
      "name": "transferFrom",
      "outputs": [],
      "stateMutability": "nonpayable",
      "type": "function"
    },
    {
      "inputs": [
        {
          "internalType": "address",
          "name": "artist",
          "type": "address"
        },
        {
          "internalType": "string",
          "name": "tokenURI",
          "type": "string"
        }
      ],
      "name": "CreateLicense",
      "outputs": [
        {
          "internalType": "uint256",
          "name": "",
          "type": "uint256"
        }
      ],
      "stateMutability": "nonpayable",
      "type": "function"
    }
  ],
  "bytecode": "0x60806040523480156200001157600080fd5b506040518060400160405280600d81526020017f444d757369634c6963656e7365000000000000000000000000000000000000008152506040518060400160405280600381526020017f444d4c0000000000000000000000000000000000000000000000000000000000815250816000908051906020019062000096929190620000b8565b508060019080519060200190620000af929190620000b8565b505050620001cd565b828054620000c69062000197565b90600052602060002090601f016020900481019282620000ea576000855562000136565b82601f106200010557805160ff191683800117855562000136565b8280016001018555821562000136579182015b828111156200013557825182559160200191906001019062000118565b5b50905062000145919062000149565b5090565b5b80821115620001645760008160009055506001016200014a565b5090565b7f4e487b7100000000000000000000000000000000000000000000000000000000600052602260045260246000fd5b60006002820490506001821680620001b057607f821691505b60208210811415620001c757620001c662000168565b5b50919050565b61297780620001dd6000396000f3fe608060405234801561001057600080fd5b50600436106100ea5760003560e01c80636352211e1161008c578063a22cb46511610066578063a22cb4651461026f578063b88d4fde1461028b578063c87b56dd146102a7578063e985e9c5146102d7576100ea565b80636352211e146101f157806370a082311461022157806395d89b4114610251576100ea565b8063081812fc116100c8578063081812fc1461016d578063095ea7b31461019d57806323b872dd146101b957806342842e0e146101d5576100ea565b806301ffc9a7146100ef57806304da964b1461011f57806306fdde031461014f575b600080fd5b610109600480360381019061010491906117fd565b610307565b6040516101169190611845565b60405180910390f35b61013960048036038101906101349190611a04565b6103e9565b6040516101469190611a79565b60405180910390f35b61015761045e565b6040516101649190611b1c565b60405180910390f35b61018760048036038101906101829190611b6a565b6104f0565b6040516101949190611ba6565b60405180910390f35b6101b760048036038101906101b29190611bc1565b610575565b005b6101d360048036038101906101ce9190611c01565b61068d565b005b6101ef60048036038101906101ea9190611c01565b6106ed565b005b61020b60048036038101906102069190611b6a565b61070d565b6040516102189190611ba6565b60405180910390f35b61023b60048036038101906102369190611c54565b6107bf565b6040516102489190611a79565b60405180910390f35b610259610877565b6040516102669190611b1c565b60405180910390f35b61028960048036038101906102849190611cad565b610909565b005b6102a560048036038101906102a09190611d8e565b610a8a565b005b6102c160048036038101906102bc9190611b6a565b610aec565b6040516102ce9190611b1c565b60405180910390f35b6102f160048036038101906102ec9190611e11565b610b93565b6040516102fe9190611845565b60405180910390f35b60007f80ac58cd000000000000000000000000000000000000000000000000000000007bffffffffffffffffffffffffffffffffffffffffffffffffffffffff1916827bffffffffffffffffffffffffffffffffffffffffffffffffffffffff191614806103d257507f5b5e139f000000000000000000000000000000000000000000000000000000007bffffffffffffffffffffffffffffffffffffffffffffffffffffffff1916827bffffffffffffffffffffffffffffffffffffffffffffffffffffffff1916145b806103e257506103e182610c27565b5b9050919050565b60008060065490506103fb8482610c91565b6104058184610caf565b6006600081548092919061041890611e80565b91905055507fb4a6bfb48c3ae76f3f056c0591271a8564850844bfb72aa2f6f42099828d19f08360405161044c9190611b1c565b60405180910390a18091505092915050565b60606000805461046d90611ef8565b80601f016020809104026020016040519081016040528092919081815260200182805461049990611ef8565b80156104e65780601f106104bb576101008083540402835291602001916104e6565b820191906000526020600020905b8154815290600101906020018083116104c957829003601f168201915b5050505050905090565b60006104fb82610cdb565b61053a576040517f08c379a000000000000000000000000000000000000000000000000000000000815260040161053190611f9c565b60405180910390fd5b6004600083815260200190815260200160002060009054906101000a900473ffffffffffffffffffffffffffffffffffffffff169050919050565b60006105808261070d565b90508073ffffffffffffffffffffffffffffffffffffffff168373ffffffffffffffffffffffffffffffffffffffff1614156105f1576040517f08c379a00000000000000000000000000000000000000000000000000000000081526004016105e89061202e565b60405180910390fd5b8073ffffffffffffffffffffffffffffffffffffffff16610610610d47565b73ffffffffffffffffffffffffffffffffffffffff16148061063f575061063e81610639610d47565b610b93565b5b61067e576040517f08c379a0000000000000000000000000000000000000000000000000000000008152600401610675906120c0565b60405180910390fd5b6106888383610d4f565b505050565b61069e610698610d47565b82610e08565b6106dd576040517f08c379a00000000000000000000000000000000000000000000000000000000081526004016106d490612152565b60405180910390fd5b6106e8838383610ee6565b505050565b61070883838360405180602001604052806000815250610a8a565b505050565b6000806002600084815260200190815260200160002060009054906101000a900473ffffffffffffffffffffffffffffffffffffffff169050600073ffffffffffffffffffffffffffffffffffffffff168173ffffffffffffffffffffffffffffffffffffffff1614156107b6576040517f08c379a00000000000000000000000000000000000000000000000000000000081526004016107ad906121e4565b60405180910390fd5b80915050919050565b60008073ffffffffffffffffffffffffffffffffffffffff168273ffffffffffffffffffffffffffffffffffffffff161415610830576040517f08c379a000000000000000000000000000000000000000000000000000000000815260040161082790612276565b60405180910390fd5b600360008373ffffffffffffffffffffffffffffffffffffffff1673ffffffffffffffffffffffffffffffffffffffff168152602001908152602001600020549050919050565b60606001805461088690611ef8565b80601f01602080910402602001604051908101604052809291908181526020018280546108b290611ef8565b80156108ff5780601f106108d4576101008083540402835291602001916108ff565b820191906000526020600020905b8154815290600101906020018083116108e257829003601f168201915b5050505050905090565b610911610d47565b73ffffffffffffffffffffffffffffffffffffffff168273ffffffffffffffffffffffffffffffffffffffff16141561097f576040517f08c379a0000000000000000000000000000000000000000000000000000000008152600401610976906122e2565b60405180910390fd5b806005600061098c610d47565b73ffffffffffffffffffffffffffffffffffffffff1673ffffffffffffffffffffffffffffffffffffffff16815260200190815260200160002060008473ffffffffffffffffffffffffffffffffffffffff1673ffffffffffffffffffffffffffffffffffffffff16815260200190815260200160002060006101000a81548160ff0219169083151502179055508173ffffffffffffffffffffffffffffffffffffffff16610a39610d47565b73ffffffffffffffffffffffffffffffffffffffff167f17307eab39ab6107e8899845ad3d59bd9653f200f220920489ca2b5937696c3183604051610a7e9190611845565b60405180910390a35050565b610a9b610a95610d47565b83610e08565b610ada576040517f08c379a0000000000000000000000000000000000000000000000000000000008152600401610ad190612152565b60405180910390fd5b610ae684848484611142565b50505050565b6060610af782610cdb565b610b36576040517f08c379a0000000000000000000000000000000000000000000000000000000008152600401610b2d90612374565b60405180910390fd5b6000610b4061119e565b90506000815111610b605760405180602001604052806000815250610b8b565b80610b6a846111b5565b604051602001610b7b9291906123d0565b6040516020818303038152906040525b915050919050565b6000600560008473ffffffffffffffffffffffffffffffffffffffff1673ffffffffffffffffffffffffffffffffffffffff16815260200190815260200160002060008373ffffffffffffffffffffffffffffffffffffffff1673ffffffffffffffffffffffffffffffffffffffff16815260200190815260200160002060009054906101000a900460ff16905092915050565b60007f01ffc9a7000000000000000000000000000000000000000000000000000000007bffffffffffffffffffffffffffffffffffffffffffffffffffffffff1916827bffffffffffffffffffffffffffffffffffffffffffffffffffffffff1916149050919050565b610cab828260405180602001604052806000815250611316565b5050565b80600760008481526020019081526020016000209080519060200190610cd69291906116ee565b505050565b60008073ffffffffffffffffffffffffffffffffffffffff166002600084815260200190815260200160002060009054906101000a900473ffffffffffffffffffffffffffffffffffffffff1673ffffffffffffffffffffffffffffffffffffffff1614159050919050565b600033905090565b816004600083815260200190815260200160002060006101000a81548173ffffffffffffffffffffffffffffffffffffffff021916908373ffffffffffffffffffffffffffffffffffffffff160217905550808273ffffffffffffffffffffffffffffffffffffffff16610dc28361070d565b73ffffffffffffffffffffffffffffffffffffffff167f8c5be1e5ebec7d5bd14f71427d1e84f3dd0314c0f7b2291e5b200ac8c7c3b92560405160405180910390a45050565b6000610e1382610cdb565b610e52576040517f08c379a0000000000000000000000000000000000000000000000000000000008152600401610e4990612466565b60405180910390fd5b6000610e5d8361070d565b90508073ffffffffffffffffffffffffffffffffffffffff168473ffffffffffffffffffffffffffffffffffffffff161480610ecc57508373ffffffffffffffffffffffffffffffffffffffff16610eb4846104f0565b73ffffffffffffffffffffffffffffffffffffffff16145b80610edd5750610edc8185610b93565b5b91505092915050565b8273ffffffffffffffffffffffffffffffffffffffff16610f068261070d565b73ffffffffffffffffffffffffffffffffffffffff1614610f5c576040517f08c379a0000000000000000000000000000000000000000000000000000000008152600401610f53906124f8565b60405180910390fd5b600073ffffffffffffffffffffffffffffffffffffffff168273ffffffffffffffffffffffffffffffffffffffff161415610fcc576040517f08c379a0000000000000000000000000000000000000000000000000000000008152600401610fc39061258a565b60405180910390fd5b610fd7838383611371565b610fe2600082610d4f565b6001600360008573ffffffffffffffffffffffffffffffffffffffff1673ffffffffffffffffffffffffffffffffffffffff168152602001908152602001600020600082825461103291906125aa565b925050819055506001600360008473ffffffffffffffffffffffffffffffffffffffff1673ffffffffffffffffffffffffffffffffffffffff168152602001908152602001600020600082825461108991906125de565b92505081905550816002600083815260200190815260200160002060006101000a81548173ffffffffffffffffffffffffffffffffffffffff021916908373ffffffffffffffffffffffffffffffffffffffff160217905550808273ffffffffffffffffffffffffffffffffffffffff168473ffffffffffffffffffffffffffffffffffffffff167fddf252ad1be2c89b69c2b068fc378daa952ba7f163c4a11628f55a4df523b3ef60405160405180910390a4505050565b61114d848484610ee6565b61115984848484611376565b611198576040517f08c379a000000000000000000000000000000000000000000000000000000000815260040161118f906126a6565b60405180910390fd5b50505050565b606060405180602001604052806000815250905090565b606060008214156111fd576040518060400160405280600181526020017f30000000000000000000000000000000000000000000000000000000000000008152509050611311565b600082905060005b6000821461122f57808061121890611e80565b915050600a8261122891906126f5565b9150611205565b60008167ffffffffffffffff81111561124b5761124a6118d9565b5b6040519080825280601f01601f19166020018201604052801561127d5781602001600182028036833780820191505090505b5090505b6000851461130a5760018261129691906125aa565b9150600a856112a59190612726565b60306112b191906125de565b60f81b8183815181106112c7576112c6612757565b5b60200101907effffffffffffffffffffffffffffffffffffffffffffffffffffffffffffff1916908160001a905350600a8561130391906126f5565b9450611281565b8093505050505b919050565b611320838361150d565b61132d6000848484611376565b61136c576040517f08c379a0000000000000000000000000000000000000000000000000000000008152600401611363906126a6565b60405180910390fd5b505050565b505050565b60006113978473ffffffffffffffffffffffffffffffffffffffff166116db565b15611500578373ffffffffffffffffffffffffffffffffffffffff1663150b7a026113c0610d47565b8786866040518563ffffffff1660e01b81526004016113e294939291906127db565b602060405180830381600087803b1580156113fc57600080fd5b505af192505050801561142d57506040513d601f19601f8201168201806040525081019061142a919061283c565b60015b6114b0573d806000811461145d576040519150601f19603f3d011682016040523d82523d6000602084013e611462565b606091505b506000815114156114a8576040517f08c379a000000000000000000000000000000000000000000000000000000000815260040161149f906126a6565b60405180910390fd5b805181602001fd5b63150b7a0260e01b7bffffffffffffffffffffffffffffffffffffffffffffffffffffffff1916817bffffffffffffffffffffffffffffffffffffffffffffffffffffffff191614915050611505565b600190505b949350505050565b600073ffffffffffffffffffffffffffffffffffffffff168273ffffffffffffffffffffffffffffffffffffffff16141561157d576040517f08c379a0000000000000000000000000000000000000000000000000000000008152600401611574906128b5565b60405180910390fd5b61158681610cdb565b156115c6576040517f08c379a00000000000000000000000000000000000000000000000000000000081526004016115bd90612921565b60405180910390fd5b6115d260008383611371565b6001600360008473ffffffffffffffffffffffffffffffffffffffff1673ffffffffffffffffffffffffffffffffffffffff168152602001908152602001600020600082825461162291906125de565b92505081905550816002600083815260200190815260200160002060006101000a81548173ffffffffffffffffffffffffffffffffffffffff021916908373ffffffffffffffffffffffffffffffffffffffff160217905550808273ffffffffffffffffffffffffffffffffffffffff16600073ffffffffffffffffffffffffffffffffffffffff167fddf252ad1be2c89b69c2b068fc378daa952ba7f163c4a11628f55a4df523b3ef60405160405180910390a45050565b600080823b905060008111915050919050565b8280546116fa90611ef8565b90600052602060002090601f01602090048101928261171c5760008555611763565b82601f1061173557805160ff1916838001178555611763565b82800160010185558215611763579182015b82811115611762578251825591602001919060010190611747565b5b5090506117709190611774565b5090565b5b8082111561178d576000816000905550600101611775565b5090565b6000604051905090565b600080fd5b600080fd5b60007fffffffff0000000000000000000000000000000000000000000000000000000082169050919050565b6117da816117a5565b81146117e557600080fd5b50565b6000813590506117f7816117d1565b92915050565b6000602082840312156118135761181261179b565b5b6000611821848285016117e8565b91505092915050565b60008115159050919050565b61183f8161182a565b82525050565b600060208201905061185a6000830184611836565b92915050565b600073ffffffffffffffffffffffffffffffffffffffff82169050919050565b600061188b82611860565b9050919050565b61189b81611880565b81146118a657600080fd5b50565b6000813590506118b881611892565b92915050565b600080fd5b600080fd5b6000601f19601f8301169050919050565b7f4e487b7100000000000000000000000000000000000000000000000000000000600052604160045260246000fd5b611911826118c8565b810181811067ffffffffffffffff821117156119305761192f6118d9565b5b80604052505050565b6000611943611791565b905061194f8282611908565b919050565b600067ffffffffffffffff82111561196f5761196e6118d9565b5b611978826118c8565b9050602081019050919050565b82818337600083830152505050565b60006119a76119a284611954565b611939565b9050828152602081018484840111156119c3576119c26118c3565b5b6119ce848285611985565b509392505050565b600082601f8301126119eb576119ea6118be565b5b81356119fb848260208601611994565b91505092915050565b60008060408385031215611a1b57611a1a61179b565b5b6000611a29858286016118a9565b925050602083013567ffffffffffffffff811115611a4a57611a496117a0565b5b611a56858286016119d6565b9150509250929050565b6000819050919050565b611a7381611a60565b82525050565b6000602082019050611a8e6000830184611a6a565b92915050565b600081519050919050565b600082825260208201905092915050565b60005b83811015611ace578082015181840152602081019050611ab3565b83811115611add576000848401525b50505050565b6000611aee82611a94565b611af88185611a9f565b9350611b08818560208601611ab0565b611b11816118c8565b840191505092915050565b60006020820190508181036000830152611b368184611ae3565b905092915050565b611b4781611a60565b8114611b5257600080fd5b50565b600081359050611b6481611b3e565b92915050565b600060208284031215611b8057611b7f61179b565b5b6000611b8e84828501611b55565b91505092915050565b611ba081611880565b82525050565b6000602082019050611bbb6000830184611b97565b92915050565b60008060408385031215611bd857611bd761179b565b5b6000611be6858286016118a9565b9250506020611bf785828601611b55565b9150509250929050565b600080600060608486031215611c1a57611c1961179b565b5b6000611c28868287016118a9565b9350506020611c39868287016118a9565b9250506040611c4a86828701611b55565b9150509250925092565b600060208284031215611c6a57611c6961179b565b5b6000611c78848285016118a9565b91505092915050565b611c8a8161182a565b8114611c9557600080fd5b50565b600081359050611ca781611c81565b92915050565b60008060408385031215611cc457611cc361179b565b5b6000611cd2858286016118a9565b9250506020611ce385828601611c98565b9150509250929050565b600067ffffffffffffffff821115611d0857611d076118d9565b5b611d11826118c8565b9050602081019050919050565b6000611d31611d2c84611ced565b611939565b905082815260208101848484011115611d4d57611d4c6118c3565b5b611d58848285611985565b509392505050565b600082601f830112611d7557611d746118be565b5b8135611d85848260208601611d1e565b91505092915050565b60008060008060808587031215611da857611da761179b565b5b6000611db6878288016118a9565b9450506020611dc7878288016118a9565b9350506040611dd887828801611b55565b925050606085013567ffffffffffffffff811115611df957611df86117a0565b5b611e0587828801611d60565b91505092959194509250565b60008060408385031215611e2857611e2761179b565b5b6000611e36858286016118a9565b9250506020611e47858286016118a9565b9150509250929050565b7f4e487b7100000000000000000000000000000000000000000000000000000000600052601160045260246000fd5b6000611e8b82611a60565b91507fffffffffffffffffffffffffffffffffffffffffffffffffffffffffffffffff821415611ebe57611ebd611e51565b5b600182019050919050565b7f4e487b7100000000000000000000000000000000000000000000000000000000600052602260045260246000fd5b60006002820490506001821680611f1057607f821691505b60208210811415611f2457611f23611ec9565b5b50919050565b7f4552433732313a20617070726f76656420717565727920666f72206e6f6e657860008201527f697374656e7420746f6b656e0000000000000000000000000000000000000000602082015250565b6000611f86602c83611a9f565b9150611f9182611f2a565b604082019050919050565b60006020820190508181036000830152611fb581611f79565b9050919050565b7f4552433732313a20617070726f76616c20746f2063757272656e74206f776e6560008201527f7200000000000000000000000000000000000000000000000000000000000000602082015250565b6000612018602183611a9f565b915061202382611fbc565b604082019050919050565b600060208201905081810360008301526120478161200b565b9050919050565b7f4552433732313a20617070726f76652063616c6c6572206973206e6f74206f7760008201527f6e6572206e6f7220617070726f76656420666f7220616c6c0000000000000000602082015250565b60006120aa603883611a9f565b91506120b58261204e565b604082019050919050565b600060208201905081810360008301526120d98161209d565b9050919050565b7f4552433732313a207472616e736665722063616c6c6572206973206e6f74206f60008201527f776e6572206e6f7220617070726f766564000000000000000000000000000000602082015250565b600061213c603183611a9f565b9150612147826120e0565b604082019050919050565b6000602082019050818103600083015261216b8161212f565b9050919050565b7f4552433732313a206f776e657220717565727920666f72206e6f6e657869737460008201527f656e7420746f6b656e0000000000000000000000000000000000000000000000602082015250565b60006121ce602983611a9f565b91506121d982612172565b604082019050919050565b600060208201905081810360008301526121fd816121c1565b9050919050565b7f4552433732313a2062616c616e636520717565727920666f7220746865207a6560008201527f726f206164647265737300000000000000000000000000000000000000000000602082015250565b6000612260602a83611a9f565b915061226b82612204565b604082019050919050565b6000602082019050818103600083015261228f81612253565b9050919050565b7f4552433732313a20617070726f766520746f2063616c6c657200000000000000600082015250565b60006122cc601983611a9f565b91506122d782612296565b602082019050919050565b600060208201905081810360008301526122fb816122bf565b9050919050565b7f4552433732314d657461646174613a2055524920717565727920666f72206e6f60008201527f6e6578697374656e7420746f6b656e0000000000000000000000000000000000602082015250565b600061235e602f83611a9f565b915061236982612302565b604082019050919050565b6000602082019050818103600083015261238d81612351565b9050919050565b600081905092915050565b60006123aa82611a94565b6123b48185612394565b93506123c4818560208601611ab0565b80840191505092915050565b60006123dc828561239f565b91506123e8828461239f565b91508190509392505050565b7f4552433732313a206f70657261746f7220717565727920666f72206e6f6e657860008201527f697374656e7420746f6b656e0000000000000000000000000000000000000000602082015250565b6000612450602c83611a9f565b915061245b826123f4565b604082019050919050565b6000602082019050818103600083015261247f81612443565b9050919050565b7f4552433732313a207472616e73666572206f6620746f6b656e2074686174206960008201527f73206e6f74206f776e0000000000000000000000000000000000000000000000602082015250565b60006124e2602983611a9f565b91506124ed82612486565b604082019050919050565b60006020820190508181036000830152612511816124d5565b9050919050565b7f4552433732313a207472616e7366657220746f20746865207a65726f2061646460008201527f7265737300000000000000000000000000000000000000000000000000000000602082015250565b6000612574602483611a9f565b915061257f82612518565b604082019050919050565b600060208201905081810360008301526125a381612567565b9050919050565b60006125b582611a60565b91506125c083611a60565b9250828210156125d3576125d2611e51565b5b828203905092915050565b60006125e982611a60565b91506125f483611a60565b9250827fffffffffffffffffffffffffffffffffffffffffffffffffffffffffffffffff0382111561262957612628611e51565b5b828201905092915050565b7f4552433732313a207472616e7366657220746f206e6f6e20455243373231526560008201527f63656976657220696d706c656d656e7465720000000000000000000000000000602082015250565b6000612690603283611a9f565b915061269b82612634565b604082019050919050565b600060208201905081810360008301526126bf81612683565b9050919050565b7f4e487b7100000000000000000000000000000000000000000000000000000000600052601260045260246000fd5b600061270082611a60565b915061270b83611a60565b92508261271b5761271a6126c6565b5b828204905092915050565b600061273182611a60565b915061273c83611a60565b92508261274c5761274b6126c6565b5b828206905092915050565b7f4e487b7100000000000000000000000000000000000000000000000000000000600052603260045260246000fd5b600081519050919050565b600082825260208201905092915050565b60006127ad82612786565b6127b78185612791565b93506127c7818560208601611ab0565b6127d0816118c8565b840191505092915050565b60006080820190506127f06000830187611b97565b6127fd6020830186611b97565b61280a6040830185611a6a565b818103606083015261281c81846127a2565b905095945050505050565b600081519050612836816117d1565b92915050565b6000602082840312156128525761285161179b565b5b600061286084828501612827565b91505092915050565b7f4552433732313a206d696e7420746f20746865207a65726f2061646472657373600082015250565b600061289f602083611a9f565b91506128aa82612869565b602082019050919050565b600060208201905081810360008301526128ce81612892565b9050919050565b7f4552433732313a20746f6b656e20616c7265616479206d696e74656400000000600082015250565b600061290b601c83611a9f565b9150612916826128d5565b602082019050919050565b6000602082019050818103600083015261293a816128fe565b905091905056fea2646970667358221220c7af5917bf35a523768f9b4d9c7c4404525efe9f3c932d1af11ec53e703eb2ba64736f6c63430008090033",
  "immutableReferences": {},
  "source": "pragma solidity ^0.8.7;\r\n// SPDX-License-Identifier: MIT\r\n\r\nimport \"@openzeppelin/contracts/token/ERC721/ERC721.sol\";\r\n\r\n\r\n\r\ncontract LicenseToken is ERC721 {\r\n    uint256 counter;\r\n    mapping (uint256 => string) private _tokenURIs;\r\n\r\n    constructor()  ERC721(\"DMusicLicense\", \"DML\") {\r\n\r\n    }\r\n    event TokenURI(string tokenuri);\r\n\r\n    function _setTokenURI(uint256 tokenId,string memory tokenURI)internal virtual{\r\n        _tokenURIs[tokenId] = tokenURI;\r\n\r\n    }\r\n    function CreateLicense(address artist, string memory tokenURI)public returns(uint256)\r\n    {\r\n        uint256 newItemId = counter;\r\n        _safeMint(artist, newItemId);\r\n        _setTokenURI(newItemId, tokenURI);\r\n        counter++;\r\n        emit TokenURI(tokenURI);\r\n\r\n        return newItemId;\r\n    }\r\n}",
  "sourcePath": "D:\\OpenSource\\BlockChain\\DMusic\\contracts\\LicenseToken.sol",
  "compiler": {
    "name": "solc",
    "version": "0.8.9+commit.e5eed63a.Emscripten.clang"
  },
  "schemaVersion": "3.4.3",
  "updatedAt": "2021-11-01T05:02:24.485Z",
  "networkType": "ethereum",
  "devdoc": {
    "kind": "dev",
    "methods": {
      "approve(address,uint256)": {
        "details": "See {IERC721-approve}."
      },
      "balanceOf(address)": {
        "details": "See {IERC721-balanceOf}."
      },
      "getApproved(uint256)": {
        "details": "See {IERC721-getApproved}."
      },
      "isApprovedForAll(address,address)": {
        "details": "See {IERC721-isApprovedForAll}."
      },
      "name()": {
        "details": "See {IERC721Metadata-name}."
      },
      "ownerOf(uint256)": {
        "details": "See {IERC721-ownerOf}."
      },
      "safeTransferFrom(address,address,uint256)": {
        "details": "See {IERC721-safeTransferFrom}."
      },
      "safeTransferFrom(address,address,uint256,bytes)": {
        "details": "See {IERC721-safeTransferFrom}."
      },
      "setApprovalForAll(address,bool)": {
        "details": "See {IERC721-setApprovalForAll}."
      },
      "supportsInterface(bytes4)": {
        "details": "See {IERC165-supportsInterface}."
      },
      "symbol()": {
        "details": "See {IERC721Metadata-symbol}."
      },
      "tokenURI(uint256)": {
        "details": "See {IERC721Metadata-tokenURI}."
      },
      "transferFrom(address,address,uint256)": {
        "details": "See {IERC721-transferFrom}."
      }
    },
    "version": 1
  },
  "userdoc": {
    "kind": "user",
    "methods": {},
    "version": 1
  }
}